{
  "_format": "hh-sol-artifact-1",
  "contractName": "WETH",
  "sourceName": "contracts/WETH.sol",
  "abi": [
    {
      "inputs": [
        {
          "internalType": "string",
          "name": "_name",
          "type": "string"
        },
        {
          "internalType": "string",
          "name": "_symbol",
          "type": "string"
        }
      ],
      "stateMutability": "nonpayable",
      "type": "constructor"
    },
    {
      "anonymous": false,
      "inputs": [
        {
          "indexed": true,
          "internalType": "address",
          "name": "owner",
          "type": "address"
        },
        {
          "indexed": true,
          "internalType": "address",
          "name": "spender",
          "type": "address"
        },
        {
          "indexed": false,
          "internalType": "uint256",
          "name": "value",
          "type": "uint256"
        }
      ],
      "name": "Approval",
      "type": "event"
    },
    {
      "anonymous": false,
      "inputs": [
        {
          "indexed": true,
          "internalType": "address",
          "name": "from",
          "type": "address"
        },
        {
          "indexed": true,
          "internalType": "address",
          "name": "to",
          "type": "address"
        },
        {
          "indexed": false,
          "internalType": "uint256",
          "name": "value",
          "type": "uint256"
        }
      ],
      "name": "Transfer",
      "type": "event"
    },
    {
      "inputs": [
        {
          "internalType": "address",
          "name": "owner",
          "type": "address"
        },
        {
          "internalType": "address",
          "name": "spender",
          "type": "address"
        }
      ],
      "name": "allowance",
      "outputs": [
        {
          "internalType": "uint256",
          "name": "",
          "type": "uint256"
        }
      ],
      "stateMutability": "view",
      "type": "function"
    },
    {
      "inputs": [
        {
          "internalType": "address",
          "name": "spender",
          "type": "address"
        },
        {
          "internalType": "uint256",
          "name": "amount",
          "type": "uint256"
        }
      ],
      "name": "approve",
      "outputs": [
        {
          "internalType": "bool",
          "name": "",
          "type": "bool"
        }
      ],
      "stateMutability": "nonpayable",
      "type": "function"
    },
    {
      "inputs": [
        {
          "internalType": "address",
          "name": "account",
          "type": "address"
        }
      ],
      "name": "balanceOf",
      "outputs": [
        {
          "internalType": "uint256",
          "name": "",
          "type": "uint256"
        }
      ],
      "stateMutability": "view",
      "type": "function"
    },
    {
      "inputs": [],
      "name": "bridgePool",
      "outputs": [
        {
          "internalType": "address",
          "name": "",
          "type": "address"
        }
      ],
      "stateMutability": "view",
      "type": "function"
    },
    {
      "inputs": [
        {
          "internalType": "address",
          "name": "_bridgePool",
          "type": "address"
        }
      ],
      "name": "changeBridgePool",
      "outputs": [],
      "stateMutability": "nonpayable",
      "type": "function"
    },
    {
      "inputs": [],
      "name": "decimals",
      "outputs": [
        {
          "internalType": "uint8",
          "name": "",
          "type": "uint8"
        }
      ],
      "stateMutability": "view",
      "type": "function"
    },
    {
      "inputs": [
        {
          "internalType": "address",
          "name": "spender",
          "type": "address"
        },
        {
          "internalType": "uint256",
          "name": "subtractedValue",
          "type": "uint256"
        }
      ],
      "name": "decreaseAllowance",
      "outputs": [
        {
          "internalType": "bool",
          "name": "",
          "type": "bool"
        }
      ],
      "stateMutability": "nonpayable",
      "type": "function"
    },
    {
      "inputs": [],
      "name": "deposit",
      "outputs": [],
      "stateMutability": "payable",
      "type": "function"
    },
    {
      "inputs": [
        {
          "internalType": "address",
          "name": "spender",
          "type": "address"
        },
        {
          "internalType": "uint256",
          "name": "addedValue",
          "type": "uint256"
        }
      ],
      "name": "increaseAllowance",
      "outputs": [
        {
          "internalType": "bool",
          "name": "",
          "type": "bool"
        }
      ],
      "stateMutability": "nonpayable",
      "type": "function"
    },
    {
      "inputs": [],
      "name": "name",
      "outputs": [
        {
          "internalType": "string",
          "name": "",
          "type": "string"
        }
      ],
      "stateMutability": "view",
      "type": "function"
    },
    {
      "inputs": [],
      "name": "symbol",
      "outputs": [
        {
          "internalType": "string",
          "name": "",
          "type": "string"
        }
      ],
      "stateMutability": "view",
      "type": "function"
    },
    {
      "inputs": [],
      "name": "totalSupply",
      "outputs": [
        {
          "internalType": "uint256",
          "name": "",
          "type": "uint256"
        }
      ],
      "stateMutability": "view",
      "type": "function"
    },
    {
      "inputs": [
        {
          "internalType": "address",
          "name": "to",
          "type": "address"
        },
        {
          "internalType": "uint256",
          "name": "amount",
          "type": "uint256"
        }
      ],
      "name": "transfer",
      "outputs": [
        {
          "internalType": "bool",
          "name": "",
          "type": "bool"
        }
      ],
      "stateMutability": "nonpayable",
      "type": "function"
    },
    {
      "inputs": [
        {
          "internalType": "address",
          "name": "from",
          "type": "address"
        },
        {
          "internalType": "address",
          "name": "to",
          "type": "address"
        },
        {
          "internalType": "uint256",
          "name": "amount",
          "type": "uint256"
        }
      ],
      "name": "transferFrom",
      "outputs": [
        {
          "internalType": "bool",
          "name": "",
          "type": "bool"
        }
      ],
      "stateMutability": "nonpayable",
      "type": "function"
    },
    {
      "inputs": [
        {
          "internalType": "uint256",
          "name": "_amount",
          "type": "uint256"
        }
      ],
      "name": "withdraw",
      "outputs": [],
      "stateMutability": "nonpayable",
      "type": "function"
    }
  ],
  "bytecode": "0x60806040523480156200001157600080fd5b50604051620020e0380380620020e08339818101604052810190620000379190620001fa565b818181600390816200004a9190620004ca565b5080600490816200005c9190620004ca565b5050505050620005b1565b6000604051905090565b600080fd5b600080fd5b600080fd5b600080fd5b6000601f19601f8301169050919050565b7f4e487b7100000000000000000000000000000000000000000000000000000000600052604160045260246000fd5b620000d08262000085565b810181811067ffffffffffffffff82111715620000f257620000f162000096565b5b80604052505050565b60006200010762000067565b9050620001158282620000c5565b919050565b600067ffffffffffffffff82111562000138576200013762000096565b5b620001438262000085565b9050602081019050919050565b60005b838110156200017057808201518184015260208101905062000153565b60008484015250505050565b6000620001936200018d846200011a565b620000fb565b905082815260208101848484011115620001b257620001b162000080565b5b620001bf84828562000150565b509392505050565b600082601f830112620001df57620001de6200007b565b5b8151620001f18482602086016200017c565b91505092915050565b6000806040838503121562000214576200021362000071565b5b600083015167ffffffffffffffff81111562000235576200023462000076565b5b6200024385828601620001c7565b925050602083015167ffffffffffffffff81111562000267576200026662000076565b5b6200027585828601620001c7565b9150509250929050565b600081519050919050565b7f4e487b7100000000000000000000000000000000000000000000000000000000600052602260045260246000fd5b60006002820490506001821680620002d257607f821691505b602082108103620002e857620002e76200028a565b5b50919050565b60008190508160005260206000209050919050565b60006020601f8301049050919050565b600082821b905092915050565b600060088302620003527fffffffffffffffffffffffffffffffffffffffffffffffffffffffffffffffff8262000313565b6200035e868362000313565b95508019841693508086168417925050509392505050565b6000819050919050565b6000819050919050565b6000620003ab620003a56200039f8462000376565b62000380565b62000376565b9050919050565b6000819050919050565b620003c7836200038a565b620003df620003d682620003b2565b84845462000320565b825550505050565b600090565b620003f6620003e7565b62000403818484620003bc565b505050565b5b818110156200042b576200041f600082620003ec565b60018101905062000409565b5050565b601f8211156200047a576200044481620002ee565b6200044f8462000303565b810160208510156200045f578190505b620004776200046e8562000303565b83018262000408565b50505b505050565b600082821c905092915050565b60006200049f600019846008026200047f565b1980831691505092915050565b6000620004ba83836200048c565b9150826002028217905092915050565b620004d5826200027f565b67ffffffffffffffff811115620004f157620004f062000096565b5b620004fd8254620002b9565b6200050a8282856200042f565b600060209050601f8311600181146200054257600084156200052d578287015190505b620005398582620004ac565b865550620005a9565b601f1984166200055286620002ee565b60005b828110156200057c5784890151825560018201915060208501945060208101905062000555565b868310156200059c578489015162000598601f8916826200048c565b8355505b6001600288020188555050505b505050505050565b611b1f80620005c16000396000f3fe6080604052600436106100e85760003560e01c8063395093511161008a578063a457c2d711610059578063a457c2d71461030a578063a9059cbb14610347578063d0e30db014610384578063dd62ed3e1461038e576100e8565b8063395093511461023a5780635e46bea51461027757806370a08231146102a257806395d89b41146102df576100e8565b806323b872dd116100c657806323b872dd146101805780632ad44071146101bd5780632e1a7d4d146101e6578063313ce5671461020f576100e8565b806306fdde03146100ed578063095ea7b31461011857806318160ddd14610155575b600080fd5b3480156100f957600080fd5b506101026103cb565b60405161010f91906110f7565b60405180910390f35b34801561012457600080fd5b5061013f600480360381019061013a91906111b2565b61045d565b60405161014c919061120d565b60405180910390f35b34801561016157600080fd5b5061016a610480565b6040516101779190611237565b60405180910390f35b34801561018c57600080fd5b506101a760048036038101906101a29190611252565b61048a565b6040516101b4919061120d565b60405180910390f35b3480156101c957600080fd5b506101e460048036038101906101df91906112a5565b6104b9565b005b3480156101f257600080fd5b5061020d600480360381019061020891906112d2565b6104fd565b005b34801561021b57600080fd5b506102246105b7565b604051610231919061131b565b60405180910390f35b34801561024657600080fd5b50610261600480360381019061025c91906111b2565b6105c0565b60405161026e919061120d565b60405180910390f35b34801561028357600080fd5b5061028c6105f7565b6040516102999190611345565b60405180910390f35b3480156102ae57600080fd5b506102c960048036038101906102c491906112a5565b61061d565b6040516102d69190611237565b60405180910390f35b3480156102eb57600080fd5b506102f4610665565b60405161030191906110f7565b60405180910390f35b34801561031657600080fd5b50610331600480360381019061032c91906111b2565b6106f7565b60405161033e919061120d565b60405180910390f35b34801561035357600080fd5b5061036e600480360381019061036991906111b2565b61076e565b60405161037b919061120d565b60405180910390f35b61038c610791565b005b34801561039a57600080fd5b506103b560048036038101906103b09190611360565b6107e0565b6040516103c29190611237565b60405180910390f35b6060600380546103da906113cf565b80601f0160208091040260200160405190810160405280929190818152602001828054610406906113cf565b80156104535780601f1061042857610100808354040283529160200191610453565b820191906000526020600020905b81548152906001019060200180831161043657829003601f168201915b5050505050905090565b600080610468610867565b905061047581858561086f565b600191505092915050565b6000600254905090565b600080610495610867565b90506104a2858285610a38565b6104ad858585610ac4565b60019150509392505050565b80600560006101000a81548173ffffffffffffffffffffffffffffffffffffffff021916908373ffffffffffffffffffffffffffffffffffffffff16021790555050565b6105073382610d3a565b60003373ffffffffffffffffffffffffffffffffffffffff168260405161052d90611431565b60006040518083038185875af1925050503d806000811461056a576040519150601f19603f3d011682016040523d82523d6000602084013e61056f565b606091505b50509050806105b3576040517f08c379a00000000000000000000000000000000000000000000000000000000081526004016105aa90611492565b60405180910390fd5b5050565b60006012905090565b6000806105cb610867565b90506105ec8185856105dd85896107e0565b6105e791906114e1565b61086f565b600191505092915050565b600560009054906101000a900473ffffffffffffffffffffffffffffffffffffffff1681565b60008060008373ffffffffffffffffffffffffffffffffffffffff1673ffffffffffffffffffffffffffffffffffffffff168152602001908152602001600020549050919050565b606060048054610674906113cf565b80601f01602080910402602001604051908101604052809291908181526020018280546106a0906113cf565b80156106ed5780601f106106c2576101008083540402835291602001916106ed565b820191906000526020600020905b8154815290600101906020018083116106d057829003601f168201915b5050505050905090565b600080610702610867565b9050600061071082866107e0565b905083811015610755576040517f08c379a000000000000000000000000000000000000000000000000000000000815260040161074c90611587565b60405180910390fd5b610762828686840361086f565b60019250505092915050565b600080610779610867565b9050610786818585610ac4565b600191505092915050565b600034116107d4576040517f08c379a00000000000000000000000000000000000000000000000000000000081526004016107cb906115f3565b60405180910390fd5b6107de3234610f07565b565b6000600160008473ffffffffffffffffffffffffffffffffffffffff1673ffffffffffffffffffffffffffffffffffffffff16815260200190815260200160002060008373ffffffffffffffffffffffffffffffffffffffff1673ffffffffffffffffffffffffffffffffffffffff16815260200190815260200160002054905092915050565b600033905090565b600073ffffffffffffffffffffffffffffffffffffffff168373ffffffffffffffffffffffffffffffffffffffff16036108de576040517f08c379a00000000000000000000000000000000000000000000000000000000081526004016108d590611685565b60405180910390fd5b600073ffffffffffffffffffffffffffffffffffffffff168273ffffffffffffffffffffffffffffffffffffffff160361094d576040517f08c379a000000000000000000000000000000000000000000000000000000000815260040161094490611717565b60405180910390fd5b80600160008573ffffffffffffffffffffffffffffffffffffffff1673ffffffffffffffffffffffffffffffffffffffff16815260200190815260200160002060008473ffffffffffffffffffffffffffffffffffffffff1673ffffffffffffffffffffffffffffffffffffffff168152602001908152602001600020819055508173ffffffffffffffffffffffffffffffffffffffff168373ffffffffffffffffffffffffffffffffffffffff167f8c5be1e5ebec7d5bd14f71427d1e84f3dd0314c0f7b2291e5b200ac8c7c3b92583604051610a2b9190611237565b60405180910390a3505050565b6000610a4484846107e0565b90507fffffffffffffffffffffffffffffffffffffffffffffffffffffffffffffffff8114610abe5781811015610ab0576040517f08c379a0000000000000000000000000000000000000000000000000000000008152600401610aa790611783565b60405180910390fd5b610abd848484840361086f565b5b50505050565b600073ffffffffffffffffffffffffffffffffffffffff168373ffffffffffffffffffffffffffffffffffffffff1603610b33576040517f08c379a0000000000000000000000000000000000000000000000000000000008152600401610b2a90611815565b60405180910390fd5b600073ffffffffffffffffffffffffffffffffffffffff168273ffffffffffffffffffffffffffffffffffffffff1603610ba2576040517f08c379a0000000000000000000000000000000000000000000000000000000008152600401610b99906118a7565b60405180910390fd5b610bad83838361105d565b60008060008573ffffffffffffffffffffffffffffffffffffffff1673ffffffffffffffffffffffffffffffffffffffff16815260200190815260200160002054905081811015610c33576040517f08c379a0000000000000000000000000000000000000000000000000000000008152600401610c2a90611939565b60405180910390fd5b8181036000808673ffffffffffffffffffffffffffffffffffffffff1673ffffffffffffffffffffffffffffffffffffffff16815260200190815260200160002081905550816000808573ffffffffffffffffffffffffffffffffffffffff1673ffffffffffffffffffffffffffffffffffffffff168152602001908152602001600020600082825401925050819055508273ffffffffffffffffffffffffffffffffffffffff168473ffffffffffffffffffffffffffffffffffffffff167fddf252ad1be2c89b69c2b068fc378daa952ba7f163c4a11628f55a4df523b3ef84604051610d219190611237565b60405180910390a3610d34848484611062565b50505050565b600073ffffffffffffffffffffffffffffffffffffffff168273ffffffffffffffffffffffffffffffffffffffff1603610da9576040517f08c379a0000000000000000000000000000000000000000000000000000000008152600401610da0906119cb565b60405180910390fd5b610db58260008361105d565b60008060008473ffffffffffffffffffffffffffffffffffffffff1673ffffffffffffffffffffffffffffffffffffffff16815260200190815260200160002054905081811015610e3b576040517f08c379a0000000000000000000000000000000000000000000000000000000008152600401610e3290611a5d565b60405180910390fd5b8181036000808573ffffffffffffffffffffffffffffffffffffffff1673ffffffffffffffffffffffffffffffffffffffff1681526020019081526020016000208190555081600260008282540392505081905550600073ffffffffffffffffffffffffffffffffffffffff168373ffffffffffffffffffffffffffffffffffffffff167fddf252ad1be2c89b69c2b068fc378daa952ba7f163c4a11628f55a4df523b3ef84604051610eee9190611237565b60405180910390a3610f0283600084611062565b505050565b600073ffffffffffffffffffffffffffffffffffffffff168273ffffffffffffffffffffffffffffffffffffffff1603610f76576040517f08c379a0000000000000000000000000000000000000000000000000000000008152600401610f6d90611ac9565b60405180910390fd5b610f826000838361105d565b8060026000828254610f9491906114e1565b92505081905550806000808473ffffffffffffffffffffffffffffffffffffffff1673ffffffffffffffffffffffffffffffffffffffff168152602001908152602001600020600082825401925050819055508173ffffffffffffffffffffffffffffffffffffffff16600073ffffffffffffffffffffffffffffffffffffffff167fddf252ad1be2c89b69c2b068fc378daa952ba7f163c4a11628f55a4df523b3ef836040516110459190611237565b60405180910390a361105960008383611062565b5050565b505050565b505050565b600081519050919050565b600082825260208201905092915050565b60005b838110156110a1578082015181840152602081019050611086565b60008484015250505050565b6000601f19601f8301169050919050565b60006110c982611067565b6110d38185611072565b93506110e3818560208601611083565b6110ec816110ad565b840191505092915050565b6000602082019050818103600083015261111181846110be565b905092915050565b600080fd5b600073ffffffffffffffffffffffffffffffffffffffff82169050919050565b60006111498261111e565b9050919050565b6111598161113e565b811461116457600080fd5b50565b60008135905061117681611150565b92915050565b6000819050919050565b61118f8161117c565b811461119a57600080fd5b50565b6000813590506111ac81611186565b92915050565b600080604083850312156111c9576111c8611119565b5b60006111d785828601611167565b92505060206111e88582860161119d565b9150509250929050565b60008115159050919050565b611207816111f2565b82525050565b600060208201905061122260008301846111fe565b92915050565b6112318161117c565b82525050565b600060208201905061124c6000830184611228565b92915050565b60008060006060848603121561126b5761126a611119565b5b600061127986828701611167565b935050602061128a86828701611167565b925050604061129b8682870161119d565b9150509250925092565b6000602082840312156112bb576112ba611119565b5b60006112c984828501611167565b91505092915050565b6000602082840312156112e8576112e7611119565b5b60006112f68482850161119d565b91505092915050565b600060ff82169050919050565b611315816112ff565b82525050565b6000602082019050611330600083018461130c565b92915050565b61133f8161113e565b82525050565b600060208201905061135a6000830184611336565b92915050565b6000806040838503121561137757611376611119565b5b600061138585828601611167565b925050602061139685828601611167565b9150509250929050565b7f4e487b7100000000000000000000000000000000000000000000000000000000600052602260045260246000fd5b600060028204905060018216806113e757607f821691505b6020821081036113fa576113f96113a0565b5b50919050565b600081905092915050565b50565b600061141b600083611400565b91506114268261140b565b600082019050919050565b600061143c8261140e565b9150819050919050565b7f455448573a204661696c656420746f2073656e64204574686572000000000000600082015250565b600061147c601a83611072565b915061148782611446565b602082019050919050565b600060208201905081810360008301526114ab8161146f565b9050919050565b7f4e487b7100000000000000000000000000000000000000000000000000000000600052601160045260246000fd5b60006114ec8261117c565b91506114f78361117c565b925082820190508082111561150f5761150e6114b2565b5b92915050565b7f45524332303a2064656372656173656420616c6c6f77616e63652062656c6f7760008201527f207a65726f000000000000000000000000000000000000000000000000000000602082015250565b6000611571602583611072565b915061157c82611515565b604082019050919050565b600060208201905081810360008301526115a081611564565b9050919050565b7f596f75206e65656420746f2073656e6420736f6d652065746865720000000000600082015250565b60006115dd601b83611072565b91506115e8826115a7565b602082019050919050565b6000602082019050818103600083015261160c816115d0565b9050919050565b7f45524332303a20617070726f76652066726f6d20746865207a65726f2061646460008201527f7265737300000000000000000000000000000000000000000000000000000000602082015250565b600061166f602483611072565b915061167a82611613565b604082019050919050565b6000602082019050818103600083015261169e81611662565b9050919050565b7f45524332303a20617070726f766520746f20746865207a65726f20616464726560008201527f7373000000000000000000000000000000000000000000000000000000000000602082015250565b6000611701602283611072565b915061170c826116a5565b604082019050919050565b60006020820190508181036000830152611730816116f4565b9050919050565b7f45524332303a20696e73756666696369656e7420616c6c6f77616e6365000000600082015250565b600061176d601d83611072565b915061177882611737565b602082019050919050565b6000602082019050818103600083015261179c81611760565b9050919050565b7f45524332303a207472616e736665722066726f6d20746865207a65726f20616460008201527f6472657373000000000000000000000000000000000000000000000000000000602082015250565b60006117ff602583611072565b915061180a826117a3565b604082019050919050565b6000602082019050818103600083015261182e816117f2565b9050919050565b7f45524332303a207472616e7366657220746f20746865207a65726f206164647260008201527f6573730000000000000000000000000000000000000000000000000000000000602082015250565b6000611891602383611072565b915061189c82611835565b604082019050919050565b600060208201905081810360008301526118c081611884565b9050919050565b7f45524332303a207472616e7366657220616d6f756e742065786365656473206260008201527f616c616e63650000000000000000000000000000000000000000000000000000602082015250565b6000611923602683611072565b915061192e826118c7565b604082019050919050565b6000602082019050818103600083015261195281611916565b9050919050565b7f45524332303a206275726e2066726f6d20746865207a65726f2061646472657360008201527f7300000000000000000000000000000000000000000000000000000000000000602082015250565b60006119b5602183611072565b91506119c082611959565b604082019050919050565b600060208201905081810360008301526119e4816119a8565b9050919050565b7f45524332303a206275726e20616d6f756e7420657863656564732062616c616e60008201527f6365000000000000000000000000000000000000000000000000000000000000602082015250565b6000611a47602283611072565b9150611a52826119eb565b604082019050919050565b60006020820190508181036000830152611a7681611a3a565b9050919050565b7f45524332303a206d696e7420746f20746865207a65726f206164647265737300600082015250565b6000611ab3601f83611072565b9150611abe82611a7d565b602082019050919050565b60006020820190508181036000830152611ae281611aa6565b905091905056fea26469706673582212204451f92e4d87e0bcd787d2308129f4b11b9e02277c2dc2aa3c33d685579cfd4164736f6c63430008120033",
  "linkReferences": {},
  "deployedLinkReferences": {}
}