{
  "_format": "hh-sol-artifact-1",
  "contractName": "BridgeRouter",
  "sourceName": "contracts/BridgeRouter.sol",
  "abi": [
    {
      "inputs": [
        {
          "internalType": "address",
          "name": "_WETH",
          "type": "address"
        }
      ],
      "stateMutability": "nonpayable",
      "type": "constructor"
    },
    {
      "anonymous": false,
      "inputs": [
        {
          "indexed": true,
          "internalType": "address",
          "name": "sender",
          "type": "address"
        },
        {
          "indexed": true,
          "internalType": "address",
          "name": "token",
          "type": "address"
        },
        {
          "indexed": false,
          "internalType": "uint256",
          "name": "amount",
          "type": "uint256"
        }
      ],
      "name": "AddLiquidity",
      "type": "event"
    },
    {
      "anonymous": false,
      "inputs": [
        {
          "indexed": true,
          "internalType": "address",
          "name": "token",
          "type": "address"
        },
        {
          "indexed": true,
          "internalType": "address",
          "name": "poolAddr",
          "type": "address"
        }
      ],
      "name": "CreatePool",
      "type": "event"
    },
    {
      "anonymous": false,
      "inputs": [
        {
          "indexed": true,
          "internalType": "address",
          "name": "sender",
          "type": "address"
        },
        {
          "indexed": true,
          "internalType": "address",
          "name": "token",
          "type": "address"
        },
        {
          "indexed": false,
          "internalType": "uint256",
          "name": "amount",
          "type": "uint256"
        }
      ],
      "name": "Deposit",
      "type": "event"
    },
    {
      "anonymous": false,
      "inputs": [
        {
          "indexed": true,
          "internalType": "address",
          "name": "previousOwner",
          "type": "address"
        },
        {
          "indexed": true,
          "internalType": "address",
          "name": "newOwner",
          "type": "address"
        }
      ],
      "name": "OwnershipTransferred",
      "type": "event"
    },
    {
      "anonymous": false,
      "inputs": [
        {
          "indexed": true,
          "internalType": "address",
          "name": "sender",
          "type": "address"
        },
        {
          "indexed": true,
          "internalType": "address",
          "name": "token",
          "type": "address"
        },
        {
          "indexed": true,
          "internalType": "uint256",
          "name": "liquidityId",
          "type": "uint256"
        },
        {
          "indexed": false,
          "internalType": "uint256",
          "name": "amount",
          "type": "uint256"
        }
      ],
      "name": "RemoveLiquidity",
      "type": "event"
    },
    {
      "anonymous": false,
      "inputs": [
        {
          "indexed": true,
          "internalType": "bytes32",
          "name": "role",
          "type": "bytes32"
        },
        {
          "indexed": true,
          "internalType": "bytes32",
          "name": "previousAdminRole",
          "type": "bytes32"
        },
        {
          "indexed": true,
          "internalType": "bytes32",
          "name": "newAdminRole",
          "type": "bytes32"
        }
      ],
      "name": "RoleAdminChanged",
      "type": "event"
    },
    {
      "anonymous": false,
      "inputs": [
        {
          "indexed": true,
          "internalType": "bytes32",
          "name": "role",
          "type": "bytes32"
        },
        {
          "indexed": true,
          "internalType": "address",
          "name": "account",
          "type": "address"
        },
        {
          "indexed": true,
          "internalType": "address",
          "name": "sender",
          "type": "address"
        }
      ],
      "name": "RoleGranted",
      "type": "event"
    },
    {
      "anonymous": false,
      "inputs": [
        {
          "indexed": true,
          "internalType": "bytes32",
          "name": "role",
          "type": "bytes32"
        },
        {
          "indexed": true,
          "internalType": "address",
          "name": "account",
          "type": "address"
        },
        {
          "indexed": true,
          "internalType": "address",
          "name": "sender",
          "type": "address"
        }
      ],
      "name": "RoleRevoked",
      "type": "event"
    },
    {
      "anonymous": false,
      "inputs": [
        {
          "indexed": true,
          "internalType": "address",
          "name": "user",
          "type": "address"
        },
        {
          "indexed": true,
          "internalType": "address",
          "name": "token",
          "type": "address"
        },
        {
          "indexed": false,
          "internalType": "uint256",
          "name": "amount",
          "type": "uint256"
        }
      ],
      "name": "Withdraw",
      "type": "event"
    },
    {
      "inputs": [],
      "name": "ADMIN_ROLE",
      "outputs": [
        {
          "internalType": "bytes32",
          "name": "",
          "type": "bytes32"
        }
      ],
      "stateMutability": "view",
      "type": "function"
    },
    {
      "inputs": [],
      "name": "DEFAULT_ADMIN_ROLE",
      "outputs": [
        {
          "internalType": "bytes32",
          "name": "",
          "type": "bytes32"
        }
      ],
      "stateMutability": "view",
      "type": "function"
    },
    {
      "inputs": [],
      "name": "WETH",
      "outputs": [
        {
          "internalType": "contract IERC20",
          "name": "",
          "type": "address"
        }
      ],
      "stateMutability": "view",
      "type": "function"
    },
    {
      "inputs": [
        {
          "internalType": "address",
          "name": "_token",
          "type": "address"
        },
        {
          "internalType": "uint256",
          "name": "_amount",
          "type": "uint256"
        }
      ],
      "name": "addLiquidity",
      "outputs": [],
      "stateMutability": "payable",
      "type": "function"
    },
    {
      "inputs": [
        {
          "internalType": "uint256",
          "name": "",
          "type": "uint256"
        }
      ],
      "name": "allBridgePools",
      "outputs": [
        {
          "internalType": "address",
          "name": "",
          "type": "address"
        }
      ],
      "stateMutability": "view",
      "type": "function"
    },
    {
      "inputs": [
        {
          "internalType": "contract IERC20",
          "name": "",
          "type": "address"
        }
      ],
      "name": "bridgePools",
      "outputs": [
        {
          "internalType": "address",
          "name": "",
          "type": "address"
        }
      ],
      "stateMutability": "view",
      "type": "function"
    },
    {
      "inputs": [
        {
          "internalType": "address",
          "name": "_token",
          "type": "address"
        }
      ],
      "name": "createBridgePool",
      "outputs": [],
      "stateMutability": "nonpayable",
      "type": "function"
    },
    {
      "inputs": [
        {
          "internalType": "address",
          "name": "_token",
          "type": "address"
        },
        {
          "internalType": "uint256",
          "name": "_amount",
          "type": "uint256"
        }
      ],
      "name": "deposit",
      "outputs": [],
      "stateMutability": "payable",
      "type": "function"
    },
    {
      "inputs": [
        {
          "internalType": "address",
          "name": "_token",
          "type": "address"
        }
      ],
      "name": "getAmountTokenInPool",
      "outputs": [
        {
          "internalType": "uint256",
          "name": "",
          "type": "uint256"
        }
      ],
      "stateMutability": "view",
      "type": "function"
    },
    {
      "inputs": [
        {
          "internalType": "bytes32",
          "name": "role",
          "type": "bytes32"
        }
      ],
      "name": "getRoleAdmin",
      "outputs": [
        {
          "internalType": "bytes32",
          "name": "",
          "type": "bytes32"
        }
      ],
      "stateMutability": "view",
      "type": "function"
    },
    {
      "inputs": [
        {
          "internalType": "bytes32",
          "name": "role",
          "type": "bytes32"
        },
        {
          "internalType": "address",
          "name": "account",
          "type": "address"
        }
      ],
      "name": "grantRole",
      "outputs": [],
      "stateMutability": "nonpayable",
      "type": "function"
    },
    {
      "inputs": [
        {
          "internalType": "address",
          "name": "_admin",
          "type": "address"
        }
      ],
      "name": "grantRole",
      "outputs": [],
      "stateMutability": "nonpayable",
      "type": "function"
    },
    {
      "inputs": [
        {
          "internalType": "bytes32",
          "name": "role",
          "type": "bytes32"
        },
        {
          "internalType": "address",
          "name": "account",
          "type": "address"
        }
      ],
      "name": "hasRole",
      "outputs": [
        {
          "internalType": "bool",
          "name": "",
          "type": "bool"
        }
      ],
      "stateMutability": "view",
      "type": "function"
    },
    {
      "inputs": [],
      "name": "owner",
      "outputs": [
        {
          "internalType": "address",
          "name": "",
          "type": "address"
        }
      ],
      "stateMutability": "view",
      "type": "function"
    },
    {
      "inputs": [
        {
          "internalType": "address",
          "name": "_token",
          "type": "address"
        },
        {
          "internalType": "uint256",
          "name": "_amount",
          "type": "uint256"
        },
        {
          "internalType": "uint256",
          "name": "_liquidityId",
          "type": "uint256"
        }
      ],
      "name": "removeLiquidity",
      "outputs": [],
      "stateMutability": "nonpayable",
      "type": "function"
    },
    {
      "inputs": [],
      "name": "renounceOwnership",
      "outputs": [],
      "stateMutability": "nonpayable",
      "type": "function"
    },
    {
      "inputs": [
        {
          "internalType": "bytes32",
          "name": "role",
          "type": "bytes32"
        },
        {
          "internalType": "address",
          "name": "account",
          "type": "address"
        }
      ],
      "name": "renounceRole",
      "outputs": [],
      "stateMutability": "nonpayable",
      "type": "function"
    },
    {
      "inputs": [
        {
          "internalType": "address",
          "name": "_admin",
          "type": "address"
        }
      ],
      "name": "revokeRole",
      "outputs": [],
      "stateMutability": "nonpayable",
      "type": "function"
    },
    {
      "inputs": [
        {
          "internalType": "bytes32",
          "name": "role",
          "type": "bytes32"
        },
        {
          "internalType": "address",
          "name": "account",
          "type": "address"
        }
      ],
      "name": "revokeRole",
      "outputs": [],
      "stateMutability": "nonpayable",
      "type": "function"
    },
    {
      "inputs": [
        {
          "internalType": "address",
          "name": "_token",
          "type": "address"
        },
        {
          "internalType": "uint256[4]",
          "name": "_rewardRate",
          "type": "uint256[4]"
        }
      ],
      "name": "setRate",
      "outputs": [],
      "stateMutability": "nonpayable",
      "type": "function"
    },
    {
      "inputs": [
        {
          "internalType": "bytes4",
          "name": "interfaceId",
          "type": "bytes4"
        }
      ],
      "name": "supportsInterface",
      "outputs": [
        {
          "internalType": "bool",
          "name": "",
          "type": "bool"
        }
      ],
      "stateMutability": "view",
      "type": "function"
    },
    {
      "inputs": [
        {
          "internalType": "address",
          "name": "newOwner",
          "type": "address"
        }
      ],
      "name": "transferOwnership",
      "outputs": [],
      "stateMutability": "nonpayable",
      "type": "function"
    },
    {
      "inputs": [
        {
          "internalType": "address",
          "name": "_token",
          "type": "address"
        },
        {
          "internalType": "address",
          "name": "_user",
          "type": "address"
        },
        {
          "internalType": "uint256",
          "name": "_amount",
          "type": "uint256"
        }
      ],
      "name": "withdraw",
      "outputs": [],
      "stateMutability": "nonpayable",
      "type": "function"
    },
    {
      "stateMutability": "payable",
      "type": "receive"
    }
  ],
  "bytecode": "0x60806040523480156200001157600080fd5b5060405162004b8438038062004b848339818101604052810190620000379190620001d5565b620000576200004b6200009f60201b60201c565b620000a760201b60201c565b80600460006101000a81548173ffffffffffffffffffffffffffffffffffffffff021916908373ffffffffffffffffffffffffffffffffffffffff1602179055505062000207565b600033905090565b60008060009054906101000a900473ffffffffffffffffffffffffffffffffffffffff169050816000806101000a81548173ffffffffffffffffffffffffffffffffffffffff021916908373ffffffffffffffffffffffffffffffffffffffff1602179055508173ffffffffffffffffffffffffffffffffffffffff168173ffffffffffffffffffffffffffffffffffffffff167f8be0079c531659141344cd1fd0a4f28419497f9722a3daafe3b4186f6b6457e060405160405180910390a35050565b600080fd5b600073ffffffffffffffffffffffffffffffffffffffff82169050919050565b60006200019d8262000170565b9050919050565b620001af8162000190565b8114620001bb57600080fd5b50565b600081519050620001cf81620001a4565b92915050565b600060208284031215620001ee57620001ed6200016b565b5b6000620001fe84828501620001be565b91505092915050565b61496d80620002176000396000f3fe608060405260043610620001635760003560e01c8063715018a611620000c7578063ad5c46481162000079578063ad5c464814620004c2578063b20789f914620004f2578063d547741f1462000536578063d9caed121462000564578063e38192e31462000592578063f2fde38b14620005c0576200016b565b8063715018a614620003a657806375b238fc14620003c057806380e52e3f14620003f05780638da5cb5b146200041e57806391d14854146200044e578063a217fddf1462000492576200016b565b806336f682c8116200012157806336f682c814620002985780633897768614620002c657806347e7ef2414620002f4578063493ecb3314620003145780635668870014620003585780635b76d18d1462000378576200016b565b806301ffc9a7146200017057806317b7e43214620001b4578063248a9ca314620001f85780632f2ff15d146200023c57806336568abe146200026a576200016b565b366200016b57005b600080fd5b3480156200017d57600080fd5b506200019c600480360381019062000196919062002051565b620005ee565b604051620001ab9190620020a0565b60405180910390f35b348015620001c157600080fd5b50620001e06004803603810190620001da919062002136565b6200066b565b604051620001ef919062002179565b60405180910390f35b3480156200020557600080fd5b506200022460048036038101906200021e9190620021d1565b6200069e565b60405162000233919062002214565b60405180910390f35b3480156200024957600080fd5b5062000268600480360381019062000262919062002262565b620006be565b005b3480156200027757600080fd5b5062000296600480360381019062000290919062002262565b620006e5565b005b348015620002a557600080fd5b50620002c46004803603810190620002be9190620022a9565b6200076f565b005b348015620002d357600080fd5b50620002f26004803603810190620002ec9190620022a9565b62000a00565b005b6200031260048036038101906200030c919062002316565b62000a39565b005b3480156200032157600080fd5b506200034060048036038101906200033a91906200235d565b62000bf9565b6040516200034f919062002179565b60405180910390f35b62000376600480360381019062000370919062002316565b62000c39565b005b3480156200038557600080fd5b50620003a460048036038101906200039e9190620023b9565b62000df9565b005b348015620003b357600080fd5b50620003be62000e87565b005b348015620003cd57600080fd5b50620003d862000e9f565b604051620003e7919062002214565b60405180910390f35b348015620003fd57600080fd5b506200041c6004803603810190620004169190620022a9565b62000ec3565b005b3480156200042b57600080fd5b506200043662000efc565b60405162000445919062002179565b60405180910390f35b3480156200045b57600080fd5b506200047a600480360381019062000474919062002262565b62000f25565b604051620004899190620020a0565b60405180910390f35b3480156200049f57600080fd5b50620004aa62000f90565b604051620004b9919062002214565b60405180910390f35b348015620004cf57600080fd5b50620004da62000f97565b604051620004e991906200246b565b60405180910390f35b348015620004ff57600080fd5b506200051e6004803603810190620005189190620022a9565b62000fbd565b6040516200052d919062002499565b60405180910390f35b3480156200054357600080fd5b506200056260048036038101906200055c919062002262565b62001104565b005b3480156200057157600080fd5b506200059060048036038101906200058a9190620024b6565b6200112b565b005b3480156200059f57600080fd5b50620005be6004803603810190620005b8919062002512565b6200141e565b005b348015620005cd57600080fd5b50620005ec6004803603810190620005e69190620022a9565b620016fe565b005b60007f7965db0b000000000000000000000000000000000000000000000000000000007bffffffffffffffffffffffffffffffffffffffffffffffffffffffff1916827bffffffffffffffffffffffffffffffffffffffffffffffffffffffff19161480620006645750620006638262001788565b5b9050919050565b60026020528060005260406000206000915054906101000a900473ffffffffffffffffffffffffffffffffffffffff1681565b600060016000838152602001908152602001600020600101549050919050565b620006c9826200069e565b620006d481620017f2565b620006e083836200180a565b505050565b620006ef620018ef565b73ffffffffffffffffffffffffffffffffffffffff168173ffffffffffffffffffffffffffffffffffffffff16146200075f576040517f08c379a00000000000000000000000000000000000000000000000000000000081526004016200075690620025f5565b60405180910390fd5b6200076b8282620018f7565b5050565b62000779620019de565b600073ffffffffffffffffffffffffffffffffffffffff168173ffffffffffffffffffffffffffffffffffffffff1603620007eb576040517f08c379a0000000000000000000000000000000000000000000000000000000008152600401620007e29062002667565b60405180910390fd5b600060405180602001620007ff9062001fe1565b6020820181038252601f19601f8201166040525090506000826040516020016200082a9190620026d9565b6040516020818303038152906040528051906020012090506000818351602085016000f590508073ffffffffffffffffffffffffffffffffffffffff1663c4d66de8856040518263ffffffff1660e01b81526004016200088b919062002179565b600060405180830381600087803b158015620008a657600080fd5b505af1158015620008bb573d6000803e3d6000fd5b5050505080600260008673ffffffffffffffffffffffffffffffffffffffff1673ffffffffffffffffffffffffffffffffffffffff16815260200190815260200160002060006101000a81548173ffffffffffffffffffffffffffffffffffffffff021916908373ffffffffffffffffffffffffffffffffffffffff1602179055506003819080600181540180825580915050600190039060005260206000200160009091909190916101000a81548173ffffffffffffffffffffffffffffffffffffffff021916908373ffffffffffffffffffffffffffffffffffffffff1602179055508073ffffffffffffffffffffffffffffffffffffffff168473ffffffffffffffffffffffffffffffffffffffff167fdbd2a1ea6808362e6adbec4db4969cbc11e3b0b28fb6c74cb342defaaf1daada60405160405180910390a350505050565b62000a0a620019de565b62000a367fa49807205ce4d355092ef5a8a18f56e8913cf4a201fbe287825b095693c21775826200180a565b50565b60008062000a478462001a63565b91509150801562000b1d5782341462000a97576040517f08c379a000000000000000000000000000000000000000000000000000000000815260040162000a8e906200276c565b60405180910390fd5b600460009054906101000a900473ffffffffffffffffffffffffffffffffffffffff1673ffffffffffffffffffffffffffffffffffffffff1663d0e30db0346040518263ffffffff1660e01b81526004016000604051808303818588803b15801562000b0257600080fd5b505af115801562000b17573d6000803e3d6000fd5b50505050505b8173ffffffffffffffffffffffffffffffffffffffff1663b6b55f25846040518263ffffffff1660e01b815260040162000b58919062002499565b600060405180830381600087803b15801562000b7357600080fd5b505af115801562000b88573d6000803e3d6000fd5b505050508373ffffffffffffffffffffffffffffffffffffffff163373ffffffffffffffffffffffffffffffffffffffff167f5548c837ab068cf56a2c2479df0882a4922fd203edb7517321831d95078c5f628560405162000beb919062002499565b60405180910390a350505050565b6003818154811062000c0a57600080fd5b906000526020600020016000915054906101000a900473ffffffffffffffffffffffffffffffffffffffff1681565b60008062000c478462001a63565b91509150801562000d1d5782341462000c97576040517f08c379a000000000000000000000000000000000000000000000000000000000815260040162000c8e906200276c565b60405180910390fd5b600460009054906101000a900473ffffffffffffffffffffffffffffffffffffffff1673ffffffffffffffffffffffffffffffffffffffff1663d0e30db0346040518263ffffffff1660e01b81526004016000604051808303818588803b15801562000d0257600080fd5b505af115801562000d17573d6000803e3d6000fd5b50505050505b8173ffffffffffffffffffffffffffffffffffffffff166351c6590a846040518263ffffffff1660e01b815260040162000d58919062002499565b600060405180830381600087803b15801562000d7357600080fd5b505af115801562000d88573d6000803e3d6000fd5b505050508373ffffffffffffffffffffffffffffffffffffffff163373ffffffffffffffffffffffffffffffffffffffff167f668256213e6a9a0247adc238fcbf44cc6b98921642fca93479c5dc38736608378560405162000deb919062002499565b60405180910390a350505050565b62000e03620019de565b600062000e108362001a63565b5090508073ffffffffffffffffffffffffffffffffffffffff1663b93ead80836040518263ffffffff1660e01b815260040162000e4e9190620027a9565b600060405180830381600087803b15801562000e6957600080fd5b505af115801562000e7e573d6000803e3d6000fd5b50505050505050565b62000e91620019de565b62000e9d600062001c03565b565b7fa49807205ce4d355092ef5a8a18f56e8913cf4a201fbe287825b095693c2177581565b62000ecd620019de565b62000ef97fa49807205ce4d355092ef5a8a18f56e8913cf4a201fbe287825b095693c2177582620018f7565b50565b60008060009054906101000a900473ffffffffffffffffffffffffffffffffffffffff16905090565b60006001600084815260200190815260200160002060000160008373ffffffffffffffffffffffffffffffffffffffff1673ffffffffffffffffffffffffffffffffffffffff16815260200190815260200160002060009054906101000a900460ff16905092915050565b6000801b81565b600460009054906101000a900473ffffffffffffffffffffffffffffffffffffffff1681565b60008073ffffffffffffffffffffffffffffffffffffffff168273ffffffffffffffffffffffffffffffffffffffff16036200101957600460009054906101000a900473ffffffffffffffffffffffffffffffffffffffff1691505b6000600260008473ffffffffffffffffffffffffffffffffffffffff1673ffffffffffffffffffffffffffffffffffffffff16815260200190815260200160002060009054906101000a900473ffffffffffffffffffffffffffffffffffffffff1690508273ffffffffffffffffffffffffffffffffffffffff166370a08231826040518263ffffffff1660e01b8152600401620010b8919062002179565b602060405180830381865afa158015620010d6573d6000803e3d6000fd5b505050506040513d601f19601f82011682018060405250810190620010fc9190620027dd565b915050919050565b6200110f826200069e565b6200111a81620017f2565b620011268383620018f7565b505050565b7fa49807205ce4d355092ef5a8a18f56e8913cf4a201fbe287825b095693c217756200115781620017f2565b600080620011658662001a63565b915091508173ffffffffffffffffffffffffffffffffffffffff16632e1a7d4d856040518263ffffffff1660e01b8152600401620011a4919062002499565b600060405180830381600087803b158015620011bf57600080fd5b505af1158015620011d4573d6000803e3d6000fd5b5050505080156200132a57600460009054906101000a900473ffffffffffffffffffffffffffffffffffffffff1673ffffffffffffffffffffffffffffffffffffffff16632e1a7d4d856040518263ffffffff1660e01b81526004016200123c919062002499565b600060405180830381600087803b1580156200125757600080fd5b505af11580156200126c573d6000803e3d6000fd5b5050505060008573ffffffffffffffffffffffffffffffffffffffff1685604051620012989062002844565b60006040518083038185875af1925050503d8060008114620012d7576040519150601f19603f3d011682016040523d82523d6000602084013e620012dc565b606091505b505090508062001323576040517f08c379a00000000000000000000000000000000000000000000000000000000081526004016200131a90620028d1565b60405180910390fd5b50620013af565b8573ffffffffffffffffffffffffffffffffffffffff1663a9059cbb86866040518363ffffffff1660e01b815260040162001367929190620028f3565b6020604051808303816000875af115801562001387573d6000803e3d6000fd5b505050506040513d601f19601f82011682018060405250810190620013ad919062002951565b505b8573ffffffffffffffffffffffffffffffffffffffff168573ffffffffffffffffffffffffffffffffffffffff167f9b1bfa7fa9ee420a16e124f794c35ac9f90472acc99140eb2f6447c714cad8eb866040516200140e919062002499565b60405180910390a3505050505050565b6000806200142c8562001a63565b9150915060008273ffffffffffffffffffffffffffffffffffffffff16639d7de6b386866040518363ffffffff1660e01b81526004016200146f92919062002983565b6020604051808303816000875af11580156200148f573d6000803e3d6000fd5b505050506040513d601f19601f82011682018060405250810190620014b59190620027dd565b905081156200160957600460009054906101000a900473ffffffffffffffffffffffffffffffffffffffff1673ffffffffffffffffffffffffffffffffffffffff16632e1a7d4d826040518263ffffffff1660e01b81526004016200151b919062002499565b600060405180830381600087803b1580156200153657600080fd5b505af11580156200154b573d6000803e3d6000fd5b5050505060003373ffffffffffffffffffffffffffffffffffffffff1682604051620015779062002844565b60006040518083038185875af1925050503d8060008114620015b6576040519150601f19603f3d011682016040523d82523d6000602084013e620015bb565b606091505b505090508062001602576040517f08c379a0000000000000000000000000000000000000000000000000000000008152600401620015f99062002a00565b60405180910390fd5b506200168e565b8573ffffffffffffffffffffffffffffffffffffffff1663a9059cbb33876040518363ffffffff1660e01b815260040162001646929190620028f3565b6020604051808303816000875af115801562001666573d6000803e3d6000fd5b505050506040513d601f19601f820116820180604052508101906200168c919062002951565b505b838673ffffffffffffffffffffffffffffffffffffffff163373ffffffffffffffffffffffffffffffffffffffff167f34ef8e86237e7385b43618862e895c6ce827b2b7d6107ad415d54336c1dd2dd688604051620016ee919062002499565b60405180910390a4505050505050565b62001708620019de565b600073ffffffffffffffffffffffffffffffffffffffff168173ffffffffffffffffffffffffffffffffffffffff16036200177a576040517f08c379a0000000000000000000000000000000000000000000000000000000008152600401620017719062002a98565b60405180910390fd5b620017858162001c03565b50565b60007f01ffc9a7000000000000000000000000000000000000000000000000000000007bffffffffffffffffffffffffffffffffffffffffffffffffffffffff1916827bffffffffffffffffffffffffffffffffffffffffffffffffffffffff1916149050919050565b620018078162001801620018ef565b62001cc7565b50565b62001816828262000f25565b620018eb57600180600084815260200190815260200160002060000160008373ffffffffffffffffffffffffffffffffffffffff1673ffffffffffffffffffffffffffffffffffffffff16815260200190815260200160002060006101000a81548160ff02191690831515021790555062001890620018ef565b73ffffffffffffffffffffffffffffffffffffffff168173ffffffffffffffffffffffffffffffffffffffff16837f2f8788117e7eff1d82e926ec794901d17c78024a50270940304540a733656f0d60405160405180910390a45b5050565b600033905090565b62001903828262000f25565b15620019da5760006001600084815260200190815260200160002060000160008373ffffffffffffffffffffffffffffffffffffffff1673ffffffffffffffffffffffffffffffffffffffff16815260200190815260200160002060006101000a81548160ff0219169083151502179055506200197f620018ef565b73ffffffffffffffffffffffffffffffffffffffff168173ffffffffffffffffffffffffffffffffffffffff16837ff6391f5c32d9c69d2a47ea670b442974b53935d1edc7fd64eb21e047a839171b60405160405180910390a45b5050565b620019e8620018ef565b73ffffffffffffffffffffffffffffffffffffffff1662001a0862000efc565b73ffffffffffffffffffffffffffffffffffffffff161462001a61576040517f08c379a000000000000000000000000000000000000000000000000000000000815260040162001a589062002b0a565b60405180910390fd5b565b600080600073ffffffffffffffffffffffffffffffffffffffff168373ffffffffffffffffffffffffffffffffffffffff160362001b295760026000600460009054906101000a900473ffffffffffffffffffffffffffffffffffffffff1673ffffffffffffffffffffffffffffffffffffffff1673ffffffffffffffffffffffffffffffffffffffff16815260200190815260200160002060009054906101000a900473ffffffffffffffffffffffffffffffffffffffff1691506001905062001b8c565b600260008473ffffffffffffffffffffffffffffffffffffffff1673ffffffffffffffffffffffffffffffffffffffff16815260200190815260200160002060009054906101000a900473ffffffffffffffffffffffffffffffffffffffff1691505b600073ffffffffffffffffffffffffffffffffffffffff168273ffffffffffffffffffffffffffffffffffffffff160362001bfe576040517f08c379a000000000000000000000000000000000000000000000000000000000815260040162001bf59062002ba2565b60405180910390fd5b915091565b60008060009054906101000a900473ffffffffffffffffffffffffffffffffffffffff169050816000806101000a81548173ffffffffffffffffffffffffffffffffffffffff021916908373ffffffffffffffffffffffffffffffffffffffff1602179055508173ffffffffffffffffffffffffffffffffffffffff168173ffffffffffffffffffffffffffffffffffffffff167f8be0079c531659141344cd1fd0a4f28419497f9722a3daafe3b4186f6b6457e060405160405180910390a35050565b62001cd3828262000f25565b62001d535762001ce38162001d57565b62001cf38360001c602062001d86565b60405160200162001d0692919062002cdd565b6040516020818303038152906040526040517f08c379a000000000000000000000000000000000000000000000000000000000815260040162001d4a919062002d71565b60405180910390fd5b5050565b606062001d7f8273ffffffffffffffffffffffffffffffffffffffff16601460ff1662001d86565b9050919050565b60606000600283600262001d9b919062002dc4565b62001da7919062002e0f565b67ffffffffffffffff81111562001dc35762001dc262002e4a565b5b6040519080825280601f01601f19166020018201604052801562001df65781602001600182028036833780820191505090505b5090507f30000000000000000000000000000000000000000000000000000000000000008160008151811062001e315762001e3062002e79565b5b60200101907effffffffffffffffffffffffffffffffffffffffffffffffffffffffffffff1916908160001a9053507f78000000000000000000000000000000000000000000000000000000000000008160018151811062001e985762001e9762002e79565b5b60200101907effffffffffffffffffffffffffffffffffffffffffffffffffffffffffffff1916908160001a9053506000600184600262001eda919062002dc4565b62001ee6919062002e0f565b90505b600181111562001f90577f3031323334353637383961626364656600000000000000000000000000000000600f86166010811062001f2c5762001f2b62002e79565b5b1a60f81b82828151811062001f465762001f4562002e79565b5b60200101907effffffffffffffffffffffffffffffffffffffffffffffffffffffffffffff1916908160001a905350600485901c94508062001f889062002ea8565b905062001ee9565b506000841462001fd7576040517f08c379a000000000000000000000000000000000000000000000000000000000815260040162001fce9062002f26565b60405180910390fd5b8091505092915050565b6119ef8062002f4983390190565b600080fd5b60007fffffffff0000000000000000000000000000000000000000000000000000000082169050919050565b6200202b8162001ff4565b81146200203757600080fd5b50565b6000813590506200204b8162002020565b92915050565b6000602082840312156200206a576200206962001fef565b5b60006200207a848285016200203a565b91505092915050565b60008115159050919050565b6200209a8162002083565b82525050565b6000602082019050620020b760008301846200208f565b92915050565b600073ffffffffffffffffffffffffffffffffffffffff82169050919050565b6000620020ea82620020bd565b9050919050565b6000620020fe82620020dd565b9050919050565b6200211081620020f1565b81146200211c57600080fd5b50565b600081359050620021308162002105565b92915050565b6000602082840312156200214f576200214e62001fef565b5b60006200215f848285016200211f565b91505092915050565b6200217381620020dd565b82525050565b600060208201905062002190600083018462002168565b92915050565b6000819050919050565b620021ab8162002196565b8114620021b757600080fd5b50565b600081359050620021cb81620021a0565b92915050565b600060208284031215620021ea57620021e962001fef565b5b6000620021fa84828501620021ba565b91505092915050565b6200220e8162002196565b82525050565b60006020820190506200222b600083018462002203565b92915050565b6200223c81620020dd565b81146200224857600080fd5b50565b6000813590506200225c8162002231565b92915050565b600080604083850312156200227c576200227b62001fef565b5b60006200228c85828601620021ba565b92505060206200229f858286016200224b565b9150509250929050565b600060208284031215620022c257620022c162001fef565b5b6000620022d2848285016200224b565b91505092915050565b6000819050919050565b620022f081620022db565b8114620022fc57600080fd5b50565b6000813590506200231081620022e5565b92915050565b6000806040838503121562002330576200232f62001fef565b5b600062002340858286016200224b565b92505060206200235385828601620022ff565b9150509250929050565b60006020828403121562002376576200237562001fef565b5b60006200238684828501620022ff565b91505092915050565b600080fd5b600081905082602060040282011115620023b357620023b26200238f565b5b92915050565b60008060a08385031215620023d357620023d262001fef565b5b6000620023e3858286016200224b565b9250506020620023f68582860162002394565b9150509250929050565b6000819050919050565b60006200242b620024256200241f84620020bd565b62002400565b620020bd565b9050919050565b60006200243f826200240a565b9050919050565b6000620024538262002432565b9050919050565b620024658162002446565b82525050565b60006020820190506200248260008301846200245a565b92915050565b6200249381620022db565b82525050565b6000602082019050620024b0600083018462002488565b92915050565b600080600060608486031215620024d257620024d162001fef565b5b6000620024e2868287016200224b565b9350506020620024f5868287016200224b565b92505060406200250886828701620022ff565b9150509250925092565b6000806000606084860312156200252e576200252d62001fef565b5b60006200253e868287016200224b565b93505060206200255186828701620022ff565b92505060406200256486828701620022ff565b9150509250925092565b600082825260208201905092915050565b7f416363657373436f6e74726f6c3a2063616e206f6e6c792072656e6f756e636560008201527f20726f6c657320666f722073656c660000000000000000000000000000000000602082015250565b6000620025dd602f836200256e565b9150620025ea826200257f565b604082019050919050565b600060208201905081810360008301526200261081620025ce565b9050919050565b7f4252494447453a205a45524f5f41444452455353000000000000000000000000600082015250565b60006200264f6014836200256e565b91506200265c8262002617565b602082019050919050565b60006020820190508181036000830152620026828162002640565b9050919050565b60008160601b9050919050565b6000620026a38262002689565b9050919050565b6000620026b78262002696565b9050919050565b620026d3620026cd82620020dd565b620026aa565b82525050565b6000620026e78284620026be565b60148201915081905092915050565b7f427269646765526f757465723a20416d6f756e74206d7573742062652065717560008201527f616c20746f206d73672e76616c75650000000000000000000000000000000000602082015250565b600062002754602f836200256e565b91506200276182620026f6565b604082019050919050565b60006020820190508181036000830152620027878162002745565b9050919050565b82818337505050565b620027a5608083836200278e565b5050565b6000608082019050620027c0600083018462002797565b92915050565b600081519050620027d781620022e5565b92915050565b600060208284031215620027f657620027f562001fef565b5b60006200280684828501620027c6565b91505092915050565b600081905092915050565b50565b60006200282c6000836200280f565b915062002839826200281a565b600082019050919050565b600062002851826200281d565b9150819050919050565b7f427269646765526f757465723a204661696c656420746f2073656e642045746860008201527f6572000000000000000000000000000000000000000000000000000000000000602082015250565b6000620028b96022836200256e565b9150620028c6826200285b565b604082019050919050565b60006020820190508181036000830152620028ec81620028aa565b9050919050565b60006040820190506200290a600083018562002168565b62002919602083018462002488565b9392505050565b6200292b8162002083565b81146200293757600080fd5b50565b6000815190506200294b8162002920565b92915050565b6000602082840312156200296a576200296962001fef565b5b60006200297a848285016200293a565b91505092915050565b60006040820190506200299a600083018562002488565b620029a9602083018462002488565b9392505050565b7f4661696c656420746f2073656e64204574686572000000000000000000000000600082015250565b6000620029e86014836200256e565b9150620029f582620029b0565b602082019050919050565b6000602082019050818103600083015262002a1b81620029d9565b9050919050565b7f4f776e61626c653a206e6577206f776e657220697320746865207a65726f206160008201527f6464726573730000000000000000000000000000000000000000000000000000602082015250565b600062002a806026836200256e565b915062002a8d8262002a22565b604082019050919050565b6000602082019050818103600083015262002ab38162002a71565b9050919050565b7f4f776e61626c653a2063616c6c6572206973206e6f7420746865206f776e6572600082015250565b600062002af26020836200256e565b915062002aff8262002aba565b602082019050919050565b6000602082019050818103600083015262002b258162002ae3565b9050919050565b7f427269646765526f757465723a205a45524f5f425249444745504f4f4c5f414460008201527f4452455353000000000000000000000000000000000000000000000000000000602082015250565b600062002b8a6025836200256e565b915062002b978262002b2c565b604082019050919050565b6000602082019050818103600083015262002bbd8162002b7b565b9050919050565b600081905092915050565b7f416363657373436f6e74726f6c3a206163636f756e7420000000000000000000600082015250565b600062002c0760178362002bc4565b915062002c148262002bcf565b601782019050919050565b600081519050919050565b60005b8381101562002c4a57808201518184015260208101905062002c2d565b60008484015250505050565b600062002c638262002c1f565b62002c6f818562002bc4565b935062002c8181856020860162002c2a565b80840191505092915050565b7f206973206d697373696e6720726f6c6520000000000000000000000000000000600082015250565b600062002cc560118362002bc4565b915062002cd28262002c8d565b601182019050919050565b600062002cea8262002bf8565b915062002cf8828562002c56565b915062002d058262002cb6565b915062002d13828462002c56565b91508190509392505050565b6000601f19601f8301169050919050565b600062002d3d8262002c1f565b62002d4981856200256e565b935062002d5b81856020860162002c2a565b62002d668162002d1f565b840191505092915050565b6000602082019050818103600083015262002d8d818462002d30565b905092915050565b7f4e487b7100000000000000000000000000000000000000000000000000000000600052601160045260246000fd5b600062002dd182620022db565b915062002dde83620022db565b925082820262002dee81620022db565b9150828204841483151762002e085762002e0762002d95565b5b5092915050565b600062002e1c82620022db565b915062002e2983620022db565b925082820190508082111562002e445762002e4362002d95565b5b92915050565b7f4e487b7100000000000000000000000000000000000000000000000000000000600052604160045260246000fd5b7f4e487b7100000000000000000000000000000000000000000000000000000000600052603260045260246000fd5b600062002eb582620022db565b91506000820362002ecb5762002eca62002d95565b5b600182039050919050565b7f537472696e67733a20686578206c656e67746820696e73756666696369656e74600082015250565b600062002f0e6020836200256e565b915062002f1b8262002ed6565b602082019050919050565b6000602082019050818103600083015262002f418162002eff565b905091905056fe60806040526040518060800160405280600a60ff168152602001600f60ff168152602001601460ff168152602001601960ff1681525060059060046200004792919062000148565b503480156200005557600080fd5b50620000766200006a6200007c60201b60201c565b6200008460201b60201c565b620001b1565b600033905090565b60008060009054906101000a900473ffffffffffffffffffffffffffffffffffffffff169050816000806101000a81548173ffffffffffffffffffffffffffffffffffffffff021916908373ffffffffffffffffffffffffffffffffffffffff1602179055508173ffffffffffffffffffffffffffffffffffffffff168173ffffffffffffffffffffffffffffffffffffffff167f8be0079c531659141344cd1fd0a4f28419497f9722a3daafe3b4186f6b6457e060405160405180910390a35050565b82600481019282156200017f579160200282015b828111156200017e578251829060ff169055916020019190600101906200015c565b5b5090506200018e919062000192565b5090565b5b80821115620001ad57600081600090555060010162000193565b5090565b61182e80620001c16000396000f3fe608060405234801561001057600080fd5b50600436106100b45760003560e01c80639d7de6b3116100715780639d7de6b314610167578063b6b55f2514610197578063b93ead80146101b3578063c4d66de8146101cf578063d9f31a18146101eb578063f2fde38b1461021d576100b4565b80632e1a7d4d146100b95780633a399f6d146100d557806351c6590a14610105578063715018a61461012157806382bfefc81461012b5780638da5cb5b14610149575b600080fd5b6100d360048036038101906100ce9190610e78565b610239565b005b6100ef60048036038101906100ea9190610f03565b6102e5565b6040516100fc9190610f52565b60405180910390f35b61011f600480360381019061011a9190610e78565b610316565b005b610129610491565b005b6101336104a5565b6040516101409190610fcc565b60405180910390f35b6101516104cb565b60405161015e9190610ff6565b60405180910390f35b610181600480360381019061017c9190611011565b6104f4565b60405161018e9190610f52565b60405180910390f35b6101b160048036038101906101ac9190610e78565b610768565b005b6101cd60048036038101906101c89190611078565b6107c2565b005b6101e960048036038101906101e491906110a5565b6107df565b005b61020560048036038101906102009190610e78565b61082b565b604051610214939291906110d2565b60405180910390f35b610237600480360381019061023291906110a5565b610875565b005b6102416108f8565b600260009054906101000a900473ffffffffffffffffffffffffffffffffffffffff1673ffffffffffffffffffffffffffffffffffffffff1663a9059cbb33836040518363ffffffff1660e01b815260040161029e929190611109565b6020604051808303816000875af11580156102bd573d6000803e3d6000fd5b505050506040513d601f19601f820116820180604052508101906102e1919061116a565b5050565b6003602052816000526040600020818154811061030157600080fd5b90600052602060002001600091509150505481565b61031e6108f8565b61036d323083600260009054906101000a900473ffffffffffffffffffffffffffffffffffffffff1673ffffffffffffffffffffffffffffffffffffffff16610976909392919063ffffffff16565b600061037960016109ff565b90506103856001610a0d565b600360003273ffffffffffffffffffffffffffffffffffffffff1673ffffffffffffffffffffffffffffffffffffffff16815260200190815260200160002081908060018154018082558091505060019003906000526020600020016000909190919091505560405180606001604052803273ffffffffffffffffffffffffffffffffffffffff168152602001838152602001428152506004600083815260200190815260200160002060008201518160000160006101000a81548173ffffffffffffffffffffffffffffffffffffffff021916908373ffffffffffffffffffffffffffffffffffffffff16021790555060208201518160010155604082015181600201559050505050565b6104996108f8565b6104a36000610a23565b565b600260009054906101000a900473ffffffffffffffffffffffffffffffffffffffff1681565b60008060009054906101000a900473ffffffffffffffffffffffffffffffffffffffff16905090565b60006104fe6108f8565b3273ffffffffffffffffffffffffffffffffffffffff166004600084815260200190815260200160002060000160009054906101000a900473ffffffffffffffffffffffffffffffffffffffff1673ffffffffffffffffffffffffffffffffffffffff16146105a2576040517f08c379a00000000000000000000000000000000000000000000000000000000081526004016105999061121a565b60405180910390fd5b60046000838152602001908152602001600020600101548311156105fb576040517f08c379a00000000000000000000000000000000000000000000000000000000081526004016105f2906112ac565b60405180910390fd5b8260046000848152602001908152602001600020600101600082825461062191906112fb565b925050819055506000640757b12c0060056106516004600087815260200190815260200160002060020154610ae7565b600481106106625761066161132f565b5b015460046000868152602001908152602001600020600201544261068691906112fb565b86610691919061135e565b61069b919061135e565b6106a591906113cf565b9050600260009054906101000a900473ffffffffffffffffffffffffffffffffffffffff1673ffffffffffffffffffffffffffffffffffffffff1663a9059cbb3383876106f29190611400565b6040518363ffffffff1660e01b815260040161070f929190611109565b6020604051808303816000875af115801561072e573d6000803e3d6000fd5b505050506040513d601f19601f82011682018060405250810190610752919061116a565b50808461075f9190611400565b91505092915050565b6107706108f8565b6107bf323083600260009054906101000a900473ffffffffffffffffffffffffffffffffffffffff1673ffffffffffffffffffffffffffffffffffffffff16610976909392919063ffffffff16565b50565b6107ca6108f8565b8060059060046107db929190610de0565b5050565b6107e76108f8565b80600260006101000a81548173ffffffffffffffffffffffffffffffffffffffff021916908373ffffffffffffffffffffffffffffffffffffffff16021790555050565b60046020528060005260406000206000915090508060000160009054906101000a900473ffffffffffffffffffffffffffffffffffffffff16908060010154908060020154905083565b61087d6108f8565b600073ffffffffffffffffffffffffffffffffffffffff168173ffffffffffffffffffffffffffffffffffffffff16036108ec576040517f08c379a00000000000000000000000000000000000000000000000000000000081526004016108e3906114a6565b60405180910390fd5b6108f581610a23565b50565b610900610b43565b73ffffffffffffffffffffffffffffffffffffffff1661091e6104cb565b73ffffffffffffffffffffffffffffffffffffffff1614610974576040517f08c379a000000000000000000000000000000000000000000000000000000000815260040161096b90611512565b60405180910390fd5b565b6109f9846323b872dd60e01b85858560405160240161099793929190611532565b604051602081830303815290604052907bffffffffffffffffffffffffffffffffffffffffffffffffffffffff19166020820180517bffffffffffffffffffffffffffffffffffffffffffffffffffffffff8381831617835250505050610b4b565b50505050565b600081600001549050919050565b6001816000016000828254019250508190555050565b60008060009054906101000a900473ffffffffffffffffffffffffffffffffffffffff169050816000806101000a81548173ffffffffffffffffffffffffffffffffffffffff021916908373ffffffffffffffffffffffffffffffffffffffff1602179055508173ffffffffffffffffffffffffffffffffffffffff168173ffffffffffffffffffffffffffffffffffffffff167f8be0079c531659141344cd1fd0a4f28419497f9722a3daafe3b4186f6b6457e060405160405180910390a35050565b6000808242610af691906112fb565b905062784ce0811015610b0d576000915050610b3e565b62f099c0811015610b22576001915050610b3e565b630168e6a0811015610b38576002915050610b3e565b60039150505b919050565b600033905090565b6000610bad826040518060400160405280602081526020017f5361666545524332303a206c6f772d6c6576656c2063616c6c206661696c65648152508573ffffffffffffffffffffffffffffffffffffffff16610c139092919063ffffffff16565b9050600081511480610bcf575080806020019051810190610bce919061116a565b5b610c0e576040517f08c379a0000000000000000000000000000000000000000000000000000000008152600401610c05906115db565b60405180910390fd5b505050565b6060610c228484600085610c2b565b90509392505050565b606082471015610c70576040517f08c379a0000000000000000000000000000000000000000000000000000000008152600401610c679061166d565b60405180910390fd5b6000808673ffffffffffffffffffffffffffffffffffffffff168587604051610c9991906116fe565b60006040518083038185875af1925050503d8060008114610cd6576040519150601f19603f3d011682016040523d82523d6000602084013e610cdb565b606091505b5091509150610cec87838387610cf8565b92505050949350505050565b60608315610d5a576000835103610d5257610d1285610d6d565b610d51576040517f08c379a0000000000000000000000000000000000000000000000000000000008152600401610d4890611761565b60405180910390fd5b5b829050610d65565b610d648383610d90565b5b949350505050565b6000808273ffffffffffffffffffffffffffffffffffffffff163b119050919050565b600082511115610da35781518083602001fd5b806040517f08c379a0000000000000000000000000000000000000000000000000000000008152600401610dd791906117d6565b60405180910390fd5b8260048101928215610e0f579160200282015b82811115610e0e578235825591602001919060010190610df3565b5b509050610e1c9190610e20565b5090565b5b80821115610e39576000816000905550600101610e21565b5090565b600080fd5b6000819050919050565b610e5581610e42565b8114610e6057600080fd5b50565b600081359050610e7281610e4c565b92915050565b600060208284031215610e8e57610e8d610e3d565b5b6000610e9c84828501610e63565b91505092915050565b600073ffffffffffffffffffffffffffffffffffffffff82169050919050565b6000610ed082610ea5565b9050919050565b610ee081610ec5565b8114610eeb57600080fd5b50565b600081359050610efd81610ed7565b92915050565b60008060408385031215610f1a57610f19610e3d565b5b6000610f2885828601610eee565b9250506020610f3985828601610e63565b9150509250929050565b610f4c81610e42565b82525050565b6000602082019050610f676000830184610f43565b92915050565b6000819050919050565b6000610f92610f8d610f8884610ea5565b610f6d565b610ea5565b9050919050565b6000610fa482610f77565b9050919050565b6000610fb682610f99565b9050919050565b610fc681610fab565b82525050565b6000602082019050610fe16000830184610fbd565b92915050565b610ff081610ec5565b82525050565b600060208201905061100b6000830184610fe7565b92915050565b6000806040838503121561102857611027610e3d565b5b600061103685828601610e63565b925050602061104785828601610e63565b9150509250929050565b600080fd5b60008190508260206004028201111561107257611071611051565b5b92915050565b60006080828403121561108e5761108d610e3d565b5b600061109c84828501611056565b91505092915050565b6000602082840312156110bb576110ba610e3d565b5b60006110c984828501610eee565b91505092915050565b60006060820190506110e76000830186610fe7565b6110f46020830185610f43565b6111016040830184610f43565b949350505050565b600060408201905061111e6000830185610fe7565b61112b6020830184610f43565b9392505050565b60008115159050919050565b61114781611132565b811461115257600080fd5b50565b6000815190506111648161113e565b92915050565b6000602082840312156111805761117f610e3d565b5b600061118e84828501611155565b91505092915050565b600082825260208201905092915050565b7f6c6971756964697479496420646f6573206e6f74206d6174636820776974682060008201527f7573657200000000000000000000000000000000000000000000000000000000602082015250565b6000611204602483611197565b915061120f826111a8565b604082019050919050565b60006020820190508181036000830152611233816111f7565b9050919050565b7f616d6f756e74206d757374206265206c657373207468616e207573657227732060008201527f6c697175696469747920616d6f756e7400000000000000000000000000000000602082015250565b6000611296603083611197565b91506112a18261123a565b604082019050919050565b600060208201905081810360008301526112c581611289565b9050919050565b7f4e487b7100000000000000000000000000000000000000000000000000000000600052601160045260246000fd5b600061130682610e42565b915061131183610e42565b9250828203905081811115611329576113286112cc565b5b92915050565b7f4e487b7100000000000000000000000000000000000000000000000000000000600052603260045260246000fd5b600061136982610e42565b915061137483610e42565b925082820261138281610e42565b91508282048414831517611399576113986112cc565b5b5092915050565b7f4e487b7100000000000000000000000000000000000000000000000000000000600052601260045260246000fd5b60006113da82610e42565b91506113e583610e42565b9250826113f5576113f46113a0565b5b828204905092915050565b600061140b82610e42565b915061141683610e42565b925082820190508082111561142e5761142d6112cc565b5b92915050565b7f4f776e61626c653a206e6577206f776e657220697320746865207a65726f206160008201527f6464726573730000000000000000000000000000000000000000000000000000602082015250565b6000611490602683611197565b915061149b82611434565b604082019050919050565b600060208201905081810360008301526114bf81611483565b9050919050565b7f4f776e61626c653a2063616c6c6572206973206e6f7420746865206f776e6572600082015250565b60006114fc602083611197565b9150611507826114c6565b602082019050919050565b6000602082019050818103600083015261152b816114ef565b9050919050565b60006060820190506115476000830186610fe7565b6115546020830185610fe7565b6115616040830184610f43565b949350505050565b7f5361666545524332303a204552433230206f7065726174696f6e20646964206e60008201527f6f74207375636365656400000000000000000000000000000000000000000000602082015250565b60006115c5602a83611197565b91506115d082611569565b604082019050919050565b600060208201905081810360008301526115f4816115b8565b9050919050565b7f416464726573733a20696e73756666696369656e742062616c616e636520666f60008201527f722063616c6c0000000000000000000000000000000000000000000000000000602082015250565b6000611657602683611197565b9150611662826115fb565b604082019050919050565b600060208201905081810360008301526116868161164a565b9050919050565b600081519050919050565b600081905092915050565b60005b838110156116c15780820151818401526020810190506116a6565b60008484015250505050565b60006116d88261168d565b6116e28185611698565b93506116f28185602086016116a3565b80840191505092915050565b600061170a82846116cd565b915081905092915050565b7f416464726573733a2063616c6c20746f206e6f6e2d636f6e7472616374000000600082015250565b600061174b601d83611197565b915061175682611715565b602082019050919050565b6000602082019050818103600083015261177a8161173e565b9050919050565b600081519050919050565b6000601f19601f8301169050919050565b60006117a882611781565b6117b28185611197565b93506117c28185602086016116a3565b6117cb8161178c565b840191505092915050565b600060208201905081810360008301526117f0818461179d565b90509291505056fea26469706673582212200396ec3291a25cda56ab6a55b2d44b089cf2ab2694b13b4234bad49d45e7135964736f6c63430008120033a26469706673582212209a94ef56bf0a2667687e883ef9d4f8920a43bef812463283ab1edf12019e1a7364736f6c63430008120033",
  "linkReferences": {},
  "deployedLinkReferences": {}
}