{
  "_format": "hh-sol-artifact-1",
  "contractName": "BridgePool",
  "sourceName": "contracts/BridgePool.sol",
  "abi": [
    {
      "inputs": [],
      "stateMutability": "nonpayable",
      "type": "constructor"
    },
    {
      "anonymous": false,
      "inputs": [
        {
          "indexed": true,
          "internalType": "address",
          "name": "previousOwner",
          "type": "address"
        },
        {
          "indexed": true,
          "internalType": "address",
          "name": "newOwner",
          "type": "address"
        }
      ],
      "name": "OwnershipTransferred",
      "type": "event"
    },
    {
      "inputs": [],
      "name": "TOKEN",
      "outputs": [
        {
          "internalType": "contract IERC20",
          "name": "",
          "type": "address"
        }
      ],
      "stateMutability": "view",
      "type": "function"
    },
    {
      "inputs": [
        {
          "internalType": "uint256",
          "name": "_amount",
          "type": "uint256"
        }
      ],
      "name": "addLiquidity",
      "outputs": [],
      "stateMutability": "nonpayable",
      "type": "function"
    },
    {
      "inputs": [
        {
          "internalType": "uint256",
          "name": "_amount",
          "type": "uint256"
        }
      ],
      "name": "deposit",
      "outputs": [],
      "stateMutability": "nonpayable",
      "type": "function"
    },
    {
      "inputs": [
        {
          "internalType": "address",
          "name": "_token",
          "type": "address"
        }
      ],
      "name": "initialize",
      "outputs": [],
      "stateMutability": "nonpayable",
      "type": "function"
    },
    {
      "inputs": [
        {
          "internalType": "address",
          "name": "",
          "type": "address"
        },
        {
          "internalType": "uint256",
          "name": "",
          "type": "uint256"
        }
      ],
      "name": "liquidityIds",
      "outputs": [
        {
          "internalType": "uint256",
          "name": "",
          "type": "uint256"
        }
      ],
      "stateMutability": "view",
      "type": "function"
    },
    {
      "inputs": [
        {
          "internalType": "uint256",
          "name": "",
          "type": "uint256"
        }
      ],
      "name": "liquidityTx",
      "outputs": [
        {
          "internalType": "address",
          "name": "user",
          "type": "address"
        },
        {
          "internalType": "uint256",
          "name": "amount",
          "type": "uint256"
        },
        {
          "internalType": "uint256",
          "name": "startTime",
          "type": "uint256"
        }
      ],
      "stateMutability": "view",
      "type": "function"
    },
    {
      "inputs": [],
      "name": "owner",
      "outputs": [
        {
          "internalType": "address",
          "name": "",
          "type": "address"
        }
      ],
      "stateMutability": "view",
      "type": "function"
    },
    {
      "inputs": [
        {
          "internalType": "uint256",
          "name": "_amount",
          "type": "uint256"
        },
        {
          "internalType": "uint256",
          "name": "_liquidityId",
          "type": "uint256"
        }
      ],
      "name": "removeLiquidity",
      "outputs": [
        {
          "internalType": "uint256",
          "name": "",
          "type": "uint256"
        }
      ],
      "stateMutability": "nonpayable",
      "type": "function"
    },
    {
      "inputs": [],
      "name": "renounceOwnership",
      "outputs": [],
      "stateMutability": "nonpayable",
      "type": "function"
    },
    {
      "inputs": [
        {
          "internalType": "uint256[4]",
          "name": "_rewardRate",
          "type": "uint256[4]"
        }
      ],
      "name": "setRate",
      "outputs": [],
      "stateMutability": "nonpayable",
      "type": "function"
    },
    {
      "inputs": [
        {
          "internalType": "address",
          "name": "newOwner",
          "type": "address"
        }
      ],
      "name": "transferOwnership",
      "outputs": [],
      "stateMutability": "nonpayable",
      "type": "function"
    },
    {
      "inputs": [
        {
          "internalType": "uint256",
          "name": "_amount",
          "type": "uint256"
        }
      ],
      "name": "withdraw",
      "outputs": [],
      "stateMutability": "nonpayable",
      "type": "function"
    }
  ],
  "bytecode": "0x60806040526040518060800160405280600a60ff168152602001600f60ff168152602001601460ff168152602001601960ff1681525060059060046200004792919062000148565b503480156200005557600080fd5b50620000766200006a6200007c60201b60201c565b6200008460201b60201c565b620001b1565b600033905090565b60008060009054906101000a900473ffffffffffffffffffffffffffffffffffffffff169050816000806101000a81548173ffffffffffffffffffffffffffffffffffffffff021916908373ffffffffffffffffffffffffffffffffffffffff1602179055508173ffffffffffffffffffffffffffffffffffffffff168173ffffffffffffffffffffffffffffffffffffffff167f8be0079c531659141344cd1fd0a4f28419497f9722a3daafe3b4186f6b6457e060405160405180910390a35050565b82600481019282156200017f579160200282015b828111156200017e578251829060ff169055916020019190600101906200015c565b5b5090506200018e919062000192565b5090565b5b80821115620001ad57600081600090555060010162000193565b5090565b61182e80620001c16000396000f3fe608060405234801561001057600080fd5b50600436106100b45760003560e01c80639d7de6b3116100715780639d7de6b314610167578063b6b55f2514610197578063b93ead80146101b3578063c4d66de8146101cf578063d9f31a18146101eb578063f2fde38b1461021d576100b4565b80632e1a7d4d146100b95780633a399f6d146100d557806351c6590a14610105578063715018a61461012157806382bfefc81461012b5780638da5cb5b14610149575b600080fd5b6100d360048036038101906100ce9190610e78565b610239565b005b6100ef60048036038101906100ea9190610f03565b6102e5565b6040516100fc9190610f52565b60405180910390f35b61011f600480360381019061011a9190610e78565b610316565b005b610129610491565b005b6101336104a5565b6040516101409190610fcc565b60405180910390f35b6101516104cb565b60405161015e9190610ff6565b60405180910390f35b610181600480360381019061017c9190611011565b6104f4565b60405161018e9190610f52565b60405180910390f35b6101b160048036038101906101ac9190610e78565b610768565b005b6101cd60048036038101906101c89190611078565b6107c2565b005b6101e960048036038101906101e491906110a5565b6107df565b005b61020560048036038101906102009190610e78565b61082b565b604051610214939291906110d2565b60405180910390f35b610237600480360381019061023291906110a5565b610875565b005b6102416108f8565b600260009054906101000a900473ffffffffffffffffffffffffffffffffffffffff1673ffffffffffffffffffffffffffffffffffffffff1663a9059cbb33836040518363ffffffff1660e01b815260040161029e929190611109565b6020604051808303816000875af11580156102bd573d6000803e3d6000fd5b505050506040513d601f19601f820116820180604052508101906102e1919061116a565b5050565b6003602052816000526040600020818154811061030157600080fd5b90600052602060002001600091509150505481565b61031e6108f8565b61036d323083600260009054906101000a900473ffffffffffffffffffffffffffffffffffffffff1673ffffffffffffffffffffffffffffffffffffffff16610976909392919063ffffffff16565b600061037960016109ff565b90506103856001610a0d565b600360003273ffffffffffffffffffffffffffffffffffffffff1673ffffffffffffffffffffffffffffffffffffffff16815260200190815260200160002081908060018154018082558091505060019003906000526020600020016000909190919091505560405180606001604052803273ffffffffffffffffffffffffffffffffffffffff168152602001838152602001428152506004600083815260200190815260200160002060008201518160000160006101000a81548173ffffffffffffffffffffffffffffffffffffffff021916908373ffffffffffffffffffffffffffffffffffffffff16021790555060208201518160010155604082015181600201559050505050565b6104996108f8565b6104a36000610a23565b565b600260009054906101000a900473ffffffffffffffffffffffffffffffffffffffff1681565b60008060009054906101000a900473ffffffffffffffffffffffffffffffffffffffff16905090565b60006104fe6108f8565b3273ffffffffffffffffffffffffffffffffffffffff166004600084815260200190815260200160002060000160009054906101000a900473ffffffffffffffffffffffffffffffffffffffff1673ffffffffffffffffffffffffffffffffffffffff16146105a2576040517f08c379a00000000000000000000000000000000000000000000000000000000081526004016105999061121a565b60405180910390fd5b60046000838152602001908152602001600020600101548311156105fb576040517f08c379a00000000000000000000000000000000000000000000000000000000081526004016105f2906112ac565b60405180910390fd5b8260046000848152602001908152602001600020600101600082825461062191906112fb565b925050819055506000640757b12c0060056106516004600087815260200190815260200160002060020154610ae7565b600481106106625761066161132f565b5b015460046000868152602001908152602001600020600201544261068691906112fb565b86610691919061135e565b61069b919061135e565b6106a591906113cf565b9050600260009054906101000a900473ffffffffffffffffffffffffffffffffffffffff1673ffffffffffffffffffffffffffffffffffffffff1663a9059cbb3383876106f29190611400565b6040518363ffffffff1660e01b815260040161070f929190611109565b6020604051808303816000875af115801561072e573d6000803e3d6000fd5b505050506040513d601f19601f82011682018060405250810190610752919061116a565b50808461075f9190611400565b91505092915050565b6107706108f8565b6107bf323083600260009054906101000a900473ffffffffffffffffffffffffffffffffffffffff1673ffffffffffffffffffffffffffffffffffffffff16610976909392919063ffffffff16565b50565b6107ca6108f8565b8060059060046107db929190610de0565b5050565b6107e76108f8565b80600260006101000a81548173ffffffffffffffffffffffffffffffffffffffff021916908373ffffffffffffffffffffffffffffffffffffffff16021790555050565b60046020528060005260406000206000915090508060000160009054906101000a900473ffffffffffffffffffffffffffffffffffffffff16908060010154908060020154905083565b61087d6108f8565b600073ffffffffffffffffffffffffffffffffffffffff168173ffffffffffffffffffffffffffffffffffffffff16036108ec576040517f08c379a00000000000000000000000000000000000000000000000000000000081526004016108e3906114a6565b60405180910390fd5b6108f581610a23565b50565b610900610b43565b73ffffffffffffffffffffffffffffffffffffffff1661091e6104cb565b73ffffffffffffffffffffffffffffffffffffffff1614610974576040517f08c379a000000000000000000000000000000000000000000000000000000000815260040161096b90611512565b60405180910390fd5b565b6109f9846323b872dd60e01b85858560405160240161099793929190611532565b604051602081830303815290604052907bffffffffffffffffffffffffffffffffffffffffffffffffffffffff19166020820180517bffffffffffffffffffffffffffffffffffffffffffffffffffffffff8381831617835250505050610b4b565b50505050565b600081600001549050919050565b6001816000016000828254019250508190555050565b60008060009054906101000a900473ffffffffffffffffffffffffffffffffffffffff169050816000806101000a81548173ffffffffffffffffffffffffffffffffffffffff021916908373ffffffffffffffffffffffffffffffffffffffff1602179055508173ffffffffffffffffffffffffffffffffffffffff168173ffffffffffffffffffffffffffffffffffffffff167f8be0079c531659141344cd1fd0a4f28419497f9722a3daafe3b4186f6b6457e060405160405180910390a35050565b6000808242610af691906112fb565b905062784ce0811015610b0d576000915050610b3e565b62f099c0811015610b22576001915050610b3e565b630168e6a0811015610b38576002915050610b3e565b60039150505b919050565b600033905090565b6000610bad826040518060400160405280602081526020017f5361666545524332303a206c6f772d6c6576656c2063616c6c206661696c65648152508573ffffffffffffffffffffffffffffffffffffffff16610c139092919063ffffffff16565b9050600081511480610bcf575080806020019051810190610bce919061116a565b5b610c0e576040517f08c379a0000000000000000000000000000000000000000000000000000000008152600401610c05906115db565b60405180910390fd5b505050565b6060610c228484600085610c2b565b90509392505050565b606082471015610c70576040517f08c379a0000000000000000000000000000000000000000000000000000000008152600401610c679061166d565b60405180910390fd5b6000808673ffffffffffffffffffffffffffffffffffffffff168587604051610c9991906116fe565b60006040518083038185875af1925050503d8060008114610cd6576040519150601f19603f3d011682016040523d82523d6000602084013e610cdb565b606091505b5091509150610cec87838387610cf8565b92505050949350505050565b60608315610d5a576000835103610d5257610d1285610d6d565b610d51576040517f08c379a0000000000000000000000000000000000000000000000000000000008152600401610d4890611761565b60405180910390fd5b5b829050610d65565b610d648383610d90565b5b949350505050565b6000808273ffffffffffffffffffffffffffffffffffffffff163b119050919050565b600082511115610da35781518083602001fd5b806040517f08c379a0000000000000000000000000000000000000000000000000000000008152600401610dd791906117d6565b60405180910390fd5b8260048101928215610e0f579160200282015b82811115610e0e578235825591602001919060010190610df3565b5b509050610e1c9190610e20565b5090565b5b80821115610e39576000816000905550600101610e21565b5090565b600080fd5b6000819050919050565b610e5581610e42565b8114610e6057600080fd5b50565b600081359050610e7281610e4c565b92915050565b600060208284031215610e8e57610e8d610e3d565b5b6000610e9c84828501610e63565b91505092915050565b600073ffffffffffffffffffffffffffffffffffffffff82169050919050565b6000610ed082610ea5565b9050919050565b610ee081610ec5565b8114610eeb57600080fd5b50565b600081359050610efd81610ed7565b92915050565b60008060408385031215610f1a57610f19610e3d565b5b6000610f2885828601610eee565b9250506020610f3985828601610e63565b9150509250929050565b610f4c81610e42565b82525050565b6000602082019050610f676000830184610f43565b92915050565b6000819050919050565b6000610f92610f8d610f8884610ea5565b610f6d565b610ea5565b9050919050565b6000610fa482610f77565b9050919050565b6000610fb682610f99565b9050919050565b610fc681610fab565b82525050565b6000602082019050610fe16000830184610fbd565b92915050565b610ff081610ec5565b82525050565b600060208201905061100b6000830184610fe7565b92915050565b6000806040838503121561102857611027610e3d565b5b600061103685828601610e63565b925050602061104785828601610e63565b9150509250929050565b600080fd5b60008190508260206004028201111561107257611071611051565b5b92915050565b60006080828403121561108e5761108d610e3d565b5b600061109c84828501611056565b91505092915050565b6000602082840312156110bb576110ba610e3d565b5b60006110c984828501610eee565b91505092915050565b60006060820190506110e76000830186610fe7565b6110f46020830185610f43565b6111016040830184610f43565b949350505050565b600060408201905061111e6000830185610fe7565b61112b6020830184610f43565b9392505050565b60008115159050919050565b61114781611132565b811461115257600080fd5b50565b6000815190506111648161113e565b92915050565b6000602082840312156111805761117f610e3d565b5b600061118e84828501611155565b91505092915050565b600082825260208201905092915050565b7f6c6971756964697479496420646f6573206e6f74206d6174636820776974682060008201527f7573657200000000000000000000000000000000000000000000000000000000602082015250565b6000611204602483611197565b915061120f826111a8565b604082019050919050565b60006020820190508181036000830152611233816111f7565b9050919050565b7f616d6f756e74206d757374206265206c657373207468616e207573657227732060008201527f6c697175696469747920616d6f756e7400000000000000000000000000000000602082015250565b6000611296603083611197565b91506112a18261123a565b604082019050919050565b600060208201905081810360008301526112c581611289565b9050919050565b7f4e487b7100000000000000000000000000000000000000000000000000000000600052601160045260246000fd5b600061130682610e42565b915061131183610e42565b9250828203905081811115611329576113286112cc565b5b92915050565b7f4e487b7100000000000000000000000000000000000000000000000000000000600052603260045260246000fd5b600061136982610e42565b915061137483610e42565b925082820261138281610e42565b91508282048414831517611399576113986112cc565b5b5092915050565b7f4e487b7100000000000000000000000000000000000000000000000000000000600052601260045260246000fd5b60006113da82610e42565b91506113e583610e42565b9250826113f5576113f46113a0565b5b828204905092915050565b600061140b82610e42565b915061141683610e42565b925082820190508082111561142e5761142d6112cc565b5b92915050565b7f4f776e61626c653a206e6577206f776e657220697320746865207a65726f206160008201527f6464726573730000000000000000000000000000000000000000000000000000602082015250565b6000611490602683611197565b915061149b82611434565b604082019050919050565b600060208201905081810360008301526114bf81611483565b9050919050565b7f4f776e61626c653a2063616c6c6572206973206e6f7420746865206f776e6572600082015250565b60006114fc602083611197565b9150611507826114c6565b602082019050919050565b6000602082019050818103600083015261152b816114ef565b9050919050565b60006060820190506115476000830186610fe7565b6115546020830185610fe7565b6115616040830184610f43565b949350505050565b7f5361666545524332303a204552433230206f7065726174696f6e20646964206e60008201527f6f74207375636365656400000000000000000000000000000000000000000000602082015250565b60006115c5602a83611197565b91506115d082611569565b604082019050919050565b600060208201905081810360008301526115f4816115b8565b9050919050565b7f416464726573733a20696e73756666696369656e742062616c616e636520666f60008201527f722063616c6c0000000000000000000000000000000000000000000000000000602082015250565b6000611657602683611197565b9150611662826115fb565b604082019050919050565b600060208201905081810360008301526116868161164a565b9050919050565b600081519050919050565b600081905092915050565b60005b838110156116c15780820151818401526020810190506116a6565b60008484015250505050565b60006116d88261168d565b6116e28185611698565b93506116f28185602086016116a3565b80840191505092915050565b600061170a82846116cd565b915081905092915050565b7f416464726573733a2063616c6c20746f206e6f6e2d636f6e7472616374000000600082015250565b600061174b601d83611197565b915061175682611715565b602082019050919050565b6000602082019050818103600083015261177a8161173e565b9050919050565b600081519050919050565b6000601f19601f8301169050919050565b60006117a882611781565b6117b28185611197565b93506117c28185602086016116a3565b6117cb8161178c565b840191505092915050565b600060208201905081810360008301526117f0818461179d565b90509291505056fea26469706673582212200396ec3291a25cda56ab6a55b2d44b089cf2ab2694b13b4234bad49d45e7135964736f6c63430008120033",
  "linkReferences": {},
  "deployedLinkReferences": {}
}